{
  "contractName": "TodoList",
  "abi": [
    {
      "constant": true,
      "inputs": [
        {
          "name": "",
          "type": "uint256"
        }
      ],
      "name": "tasks",
      "outputs": [
        {
          "name": "_id",
          "type": "uint256"
        },
        {
          "name": "_task",
          "type": "string"
        },
        {
          "name": "completed",
          "type": "bool"
        }
      ],
      "payable": false,
      "stateMutability": "view",
      "type": "function"
    },
    {
      "constant": true,
      "inputs": [],
      "name": "taskCount",
      "outputs": [
        {
          "name": "",
          "type": "uint256"
        }
      ],
      "payable": false,
      "stateMutability": "view",
      "type": "function"
    },
    {
      "inputs": [],
      "payable": false,
      "stateMutability": "nonpayable",
      "type": "constructor"
    },
    {
      "constant": false,
      "inputs": [
        {
          "name": "_text",
          "type": "string"
        }
      ],
      "name": "addTask",
      "outputs": [],
      "payable": false,
      "stateMutability": "nonpayable",
      "type": "function"
    },
    {
      "constant": false,
      "inputs": [
        {
          "name": "_id",
          "type": "uint256"
        }
      ],
      "name": "completedTask",
      "outputs": [],
      "payable": false,
      "stateMutability": "nonpayable",
      "type": "function"
    }
  ],
  "bytecode": "0x608060405234801561001057600080fd5b5061005e6040805190810160405280600a81526020017f4669727374207461736b00000000000000000000000000000000000000000000815250610063640100000000026401000000009004565b6101b3565b600160008082825401925050819055506001606060405190810160405280600054815260200183815260200160001515815250908060018154018082558091505090600182039060005260206000209060030201600090919290919091506000820151816000015560208201518160010190805190602001906100e792919061010e565b5060408201518160020160006101000a81548160ff02191690831515021790555050505050565b828054600181600116156101000203166002900490600052602060002090601f016020900481019282601f1061014f57805160ff191683800117855561017d565b8280016001018555821561017d579182015b8281111561017c578251825591602001919060010190610161565b5b50905061018a919061018e565b5090565b6101b091905b808211156101ac576000816000905550600101610194565b5090565b90565b6105df806101c26000396000f300608060405260043610610062576000357c0100000000000000000000000000000000000000000000000000000000900463ffffffff16806367238562146100675780638d977672146100d0578063b6cb58a514610188578063ed454764146101b3575b600080fd5b34801561007357600080fd5b506100ce600480360381019080803590602001908201803590602001908080601f01602080910402602001604051908101604052809392919081815260200183838082843782019150505050505091929192905050506101e0565b005b3480156100dc57600080fd5b506100fb6004803603810190808035906020019092919050505061028b565b604051808481526020018060200183151515158152602001828103825284818151815260200191508051906020019080838360005b8381101561014b578082015181840152602081019050610130565b50505050905090810190601f1680156101785780820380516001836020036101000a031916815260200191505b5094505050505060405180910390f35b34801561019457600080fd5b5061019d610369565b6040518082815260200191505060405180910390f35b3480156101bf57600080fd5b506101de6004803603810190808035906020019092919050505061036f565b005b600160008082825401925050819055506001606060405190810160405280600054815260200183815260200160001515815250908060018154018082558091505090600182039060005260206000209060030201600090919290919091506000820151816000015560208201518160010190805190602001906102649291906104ea565b5060408201518160020160006101000a81548160ff02191690831515021790555050505050565b60018181548110151561029a57fe5b9060005260206000209060030201600091509050806000015490806001018054600181600116156101000203166002900480601f01602080910402602001604051908101604052809291908181526020018280546001816001161561010002031660029004801561034c5780601f106103215761010080835404028352916020019161034c565b820191906000526020600020905b81548152906001019060200180831161032f57829003601f168201915b5050505050908060020160009054906101000a900460ff16905083565b60005481565b61037761056a565b60018281548110151561038657fe5b90600052602060002090600302016060604051908101604052908160008201548152602001600182018054600181600116156101000203166002900480601f0160208091040260200160405190810160405280929190818152602001828054600181600116156101000203166002900480156104435780601f1061041857610100808354040283529160200191610443565b820191906000526020600020905b81548152906001019060200180831161042657829003601f168201915b505050505081526020016002820160009054906101000a900460ff16151515158152505090508060400151158160400190151590811515815250508060018381548110151561048e57fe5b90600052602060002090600302016000820151816000015560208201518160010190805190602001906104c29291906104ea565b5060408201518160020160006101000a81548160ff0219169083151502179055509050505050565b828054600181600116156101000203166002900490600052602060002090601f016020900481019282601f1061052b57805160ff1916838001178555610559565b82800160010185558215610559579182015b8281111561055857825182559160200191906001019061053d565b5b509050610566919061058e565b5090565b60606040519081016040528060008152602001606081526020016000151581525090565b6105b091905b808211156105ac576000816000905550600101610594565b5090565b905600a165627a7a72305820eab6051b484d76b151024c1a170926afad5f4b9fdd8eb344d82c0a940b9e78330029",
  "source": "pragma solidity ^0.4.25;\r\n\r\ncontract TodoList {\r\n\r\n    uint public taskCount;\r\n\r\n    Task[] public tasks;\r\n\r\n    struct Task {\r\n        uint _id;\r\n        string _task;\r\n        bool completed;\r\n    }\r\n\r\n    constructor() public {\r\n        addTask(\"First task\");\r\n    }\r\n\r\n    function addTask(string memory _text) public {\r\n        taskCount += 1;\r\n        tasks.push(Task(taskCount, _text, false));\r\n    }\r\n\r\n    function completedTask(uint _id) public {\r\n        Task memory _task = tasks[_id];\r\n        _task.completed = !_task.completed;\r\n        tasks[_id] = _task;\r\n    }\r\n}",
  "sourcePath": "F:\\my_dapps\\todo\\contracts\\TodoList.sol",
  "compiler": {
    "name": "solc",
    "version": "0.4.25+commit.59dbf8f1.Emscripten.clang"
  },
  "schemaVersion": "2.0.2",
  "updatedAt": "2019-03-13T09:05:02.088Z"
}