{
  "contractName": "TodoList",
  "abi": [
    {
      "constant": true,
      "inputs": [
        {
          "name": "",
          "type": "uint256"
        }
      ],
      "name": "tasks",
      "outputs": [
        {
          "name": "_id",
          "type": "uint256"
        },
        {
          "name": "_task",
          "type": "string"
        },
        {
          "name": "completed",
          "type": "bool"
        }
      ],
      "payable": false,
      "stateMutability": "view",
      "type": "function",
      "signature": "0x8d977672"
    },
    {
      "constant": true,
      "inputs": [],
      "name": "taskCount",
      "outputs": [
        {
          "name": "",
          "type": "uint256"
        }
      ],
      "payable": false,
      "stateMutability": "view",
      "type": "function",
      "signature": "0xb6cb58a5"
    },
    {
      "inputs": [],
      "payable": false,
      "stateMutability": "nonpayable",
      "type": "constructor",
      "signature": "constructor"
    },
    {
      "constant": false,
      "inputs": [
        {
          "name": "_text",
          "type": "string"
        }
      ],
      "name": "addTask",
      "outputs": [],
      "payable": false,
      "stateMutability": "nonpayable",
      "type": "function",
      "signature": "0x67238562"
    },
    {
      "constant": false,
      "inputs": [
        {
          "name": "_id",
          "type": "uint256"
        }
      ],
      "name": "completedTask",
      "outputs": [],
      "payable": false,
      "stateMutability": "nonpayable",
      "type": "function",
      "signature": "0xed454764"
    }
  ],
  "bytecode": "0x608060405234801561001057600080fd5b5061005e6040805190810160405280600a81526020017f4669727374207461736b00000000000000000000000000000000000000000000815250610063640100000000026401000000009004565b6101b3565b600160008082825401925050819055506001606060405190810160405280600054815260200183815260200160001515815250908060018154018082558091505090600182039060005260206000209060030201600090919290919091506000820151816000015560208201518160010190805190602001906100e792919061010e565b5060408201518160020160006101000a81548160ff02191690831515021790555050505050565b828054600181600116156101000203166002900490600052602060002090601f016020900481019282601f1061014f57805160ff191683800117855561017d565b8280016001018555821561017d579182015b8281111561017c578251825591602001919060010190610161565b5b50905061018a919061018e565b5090565b6101b091905b808211156101ac576000816000905550600101610194565b5090565b90565b61065a806101c26000396000f3fe608060405260043610610062576000357c0100000000000000000000000000000000000000000000000000000000900463ffffffff16806367238562146100675780638d9776721461012f578063b6cb58a5146101f5578063ed45476414610220575b600080fd5b34801561007357600080fd5b5061012d6004803603602081101561008a57600080fd5b81019080803590602001906401000000008111156100a757600080fd5b8201836020820111156100b957600080fd5b803590602001918460018302840111640100000000831117156100db57600080fd5b91908080601f016020809104026020016040519081016040528093929190818152602001838380828437600081840152601f19601f82011690508083019250505050505050919291929050505061025b565b005b34801561013b57600080fd5b506101686004803603602081101561015257600080fd5b8101908080359060200190929190505050610306565b604051808481526020018060200183151515158152602001828103825284818151815260200191508051906020019080838360005b838110156101b857808201518184015260208101905061019d565b50505050905090810190601f1680156101e55780820380516001836020036101000a031916815260200191505b5094505050505060405180910390f35b34801561020157600080fd5b5061020a6103e4565b6040518082815260200191505060405180910390f35b34801561022c57600080fd5b506102596004803603602081101561024357600080fd5b81019080803590602001909291905050506103ea565b005b600160008082825401925050819055506001606060405190810160405280600054815260200183815260200160001515815250908060018154018082558091505090600182039060005260206000209060030201600090919290919091506000820151816000015560208201518160010190805190602001906102df929190610565565b5060408201518160020160006101000a81548160ff02191690831515021790555050505050565b60018181548110151561031557fe5b9060005260206000209060030201600091509050806000015490806001018054600181600116156101000203166002900480601f0160208091040260200160405190810160405280929190818152602001828054600181600116156101000203166002900480156103c75780601f1061039c576101008083540402835291602001916103c7565b820191906000526020600020905b8154815290600101906020018083116103aa57829003601f168201915b5050505050908060020160009054906101000a900460ff16905083565b60005481565b6103f26105e5565b60018281548110151561040157fe5b90600052602060002090600302016060604051908101604052908160008201548152602001600182018054600181600116156101000203166002900480601f0160208091040260200160405190810160405280929190818152602001828054600181600116156101000203166002900480156104be5780601f10610493576101008083540402835291602001916104be565b820191906000526020600020905b8154815290600101906020018083116104a157829003601f168201915b505050505081526020016002820160009054906101000a900460ff16151515158152505090508060400151158160400190151590811515815250508060018381548110151561050957fe5b906000526020600020906003020160008201518160000155602082015181600101908051906020019061053d929190610565565b5060408201518160020160006101000a81548160ff0219169083151502179055509050505050565b828054600181600116156101000203166002900490600052602060002090601f016020900481019282601f106105a657805160ff19168380011785556105d4565b828001600101855582156105d4579182015b828111156105d35782518255916020019190600101906105b8565b5b5090506105e19190610609565b5090565b60606040519081016040528060008152602001606081526020016000151581525090565b61062b91905b8082111561062757600081600090555060010161060f565b5090565b9056fea165627a7a72305820ea8ad311aea79dfc3b9218c909d5e6e85242c680e95c5c15276253fc74d370a30029",
  "source": "pragma solidity ^0.5.0;\r\n\r\ncontract TodoList {\r\n\r\n    uint public taskCount;\r\n\r\n    Task[] public tasks;\r\n\r\n    struct Task {\r\n        uint _id;\r\n        string _task;\r\n        bool completed;\r\n    }\r\n\r\n    constructor() public {\r\n        addTask(\"First task\");\r\n    }\r\n\r\n    function addTask(string memory _text) public {\r\n        taskCount += 1;\r\n        tasks.push(Task(taskCount, _text, false));\r\n    }\r\n\r\n    function completedTask(uint _id) public {\r\n        Task memory _task = tasks[_id];\r\n        _task.completed = !_task.completed;\r\n        tasks[_id] = _task;\r\n    }\r\n}",
  "sourcePath": "F:/my_dapps/todo/contracts/TodoList.sol",
  "compiler": {
    "name": "solc",
    "version": "0.5.0+commit.1d4f565a.Emscripten.clang"
  },
  "schemaVersion": "3.0.1",
  "updatedAt": "2019-03-13T05:36:14.804Z",
  "devdoc": {
    "methods": {}
  },
  "userdoc": {
    "methods": {}
  }
}